:020000040800F2
:10000000000002200559000851590008E1250008A8
:10001000E9250008F1250008F92500080000000086
:100020000000000000000000000000003135000862
:100030005159000800000000C9350008D9350008F2
:1000400051590008515900085159000851590008E8
:1000500051590008515900085159000851590008D8
:1000600051590008515900085159000851590008C8
:1000700051590008515900085159000851590008B8
:10008000515900085159000851590008E5830008EA
:10009000D983000851590008E98300085159000824
:1000A0005159000851590008515900085159000888
:1000B0005159000851590008515900085159000878
:1000C0005159000851590008515900085159000868
:1000D0005159000851590008515900085159000858
:1000E0005159000851590008515900085159000848
:1000F0005159000851590008515900085159000838
:100100005159000851590008515900085159000827
:100110005159000851590008515900085159000817
:100120005159000851590008515900085159000807
:10013000515900085159000851590008F983000825
:10014000ED83000851590008FD830008515900084B
:1001500051590008515900085159000851590008D7
:1001600051590008515900085159000851590008C7
:100170005159000851590008515900080000000069
:10018000515900085159000810B5054C237833B96E
:10019000044B13B10448AFF300800123237010BD5A
:1001A000A80E002000000000E82E020808B5034B4E
:1001B0001BB103490348AFF3008008BD00000000F5
:1001C000AC0E0020E82E0208A3F5803A704700BF6D
:1001D000174B002B08BF134B9D46FFF7F5FF00217F
:1001E0008B460F461348144A121A13F007FA0E4BA7
:1001F000002B00D098470D4B002B00D098470020D3
:10020000002104000D000D48002802D00C4802F027
:100210002DFE12F0F7FC2000290003F0A7F802F0F1
:100220006BFF00BF0000080000000000C93200089A
:1002300000000220A80E0020B84E00206D2E0008FD
:1002400000000000704710B55021044602F08EFFF8
:10025000204610BD70B50A4E0546306818B14FF003
:10026000FF3104F07BFA2C6824B92C1D204602F0E3
:10027000C1FF2C60306808B104F088FA204670BDD8
:10028000703C002008B5054B186810B91846FFF7F8
:10029000E1FFBDE8084002F0B5BF00BFC40E00207A
:1002A00008B5054B186810B91846FFF7D3FFBDE82D
:1002B000084002F0C3BF00BFC40E002037B505469A
:1002C000084B45F8043B04460191FFF7DBFF019919
:1002D000284605F03FFB2046FFF7E2FF204603B02B
:1002E00030BD00BFA4F6010838B50546044655F8F0
:1002F000043B9B689847284607F0E4FF23680546BF
:10030000DB6820469847284638BD036818470B68C5
:10031000036070477047C36810B504460BB19B6813
:100320009847204610BD38B50D46102200210446DE
:1003300013F064F9EB681BB15B68294620469847C7
:10034000EB68E360204638BD07B5019002F0C2FBC0
:100350000198012108F02EF903B05DF804EB02F0DA
:10036000C3BB07B5019002F0B5FB0198002108F06E
:1003700021F903B05DF804EB02F0B6BB07B5CDE997
:10038000001002F0A7FBDDE9001008F00FF903B040
:100390005DF804EB02F0A8BB70B5046805468CB9A3
:1003A000094E306818B14FF0FF3104F0D7F92C68CE
:1003B00024B92C1D204602F01DFF2C60306808B1C6
:1003C00004F0E4F9204670BD703C0020416830B470
:1003D000034671B1D0E9032000F0010402B944B131
:1003E000451001EB60000CB149598A58996830BC3E
:1003F000104730BC7047000070B50A4E05463068A3
:1004000018B14FF0FF3104F0A9F92C6824B92C1D64
:10041000204602F0EFFE2C60306808B104F0B6F917
:10042000204670BD703C002008B5054B186810B917
:100430001846FFF7E1FFBDE8084002F0FFBE00BF2D
:10044000EC0E002008B5054B186810B91846FFF7E8
:10045000D3FFBDE8084002F0D5BE00BFEC0E00207F
:10046000036870B504460D461B68984704F13000D8
:10047000C4F8CC50294608F07BFB044B1C60236871
:1004800020465B68BDE87040184700BF140F00208D
:10049000036870B5094D1B68044698472B68A34252
:1004A00006D0D4F8CC1004F1300008F061FB2C60C9
:1004B000236820465B68BDE870401847140F002091
:1004C0007FB51D4603680446CDE902211B689847A5
:1004D0002046FFF7DDFF9DF8203083F00103DDE9C2
:1004E0000221009304F130002B4608F07DFC2368C4
:1004F00006465B6820469847A81B18BF012004B039
:1005000070BD7FB51D4603680446CDE902211B6816
:1005100098472046FFF7BCFF9DF8203083F0010389
:10052000DDE90221009304F130002B4608F002FCC3
:10053000236806465B6820469847A81B18BF012021
:1005400004B070BD70B590B00D46144600211C2259
:1005500002A813F053F8012600231A46294602A8E0
:10056000009601F020FC1C22002109A813F046F897
:1005700000231A460096214609A801F014FC0A9BA4
:100580001A68099B1A4203D16FF0010010B070BDC8
:10059000039B1968029B194043D109A8FFF7EEFE9F
:1005A00009A8FFF7D1FE0A24002109A8FFF7E6FEFB
:1005B000099B0C9A1B041360052002F0DDFD01214C
:1005C00009A8FFF7DBFE0B9B099A1A60052002F0D1
:1005D000D3FD013CE8D102A8FFF7B6FE029B059AC5
:1005E0001B041360052002F0C7FD0B9B099A1A60DB
:1005F000052002F0C1FD049B029A1A60052002F05A
:10060000BBFD02A8FFF7ADFE09A8FFF7AAFE0A9BF3
:100610001A68099B1A42B7D0039B1A68029B1A42B8
:10062000B2D00020B2E70000F8B51B4B04460D46DF
:10063000164640F8043B1022002112F0DFFF04F1BF
:1006400030070021154BA185C4E90711C4E9091140
:1006500063619C22A461384612F0D0FF104BC4F8AD
:10066000CC302046FFF7EEFE32462946A4F8D050A3
:10067000A4F8D2602046FFF765FFB4F9D220B4F9A0
:10068000D010384608F01CFB064B20461C60FFF7D4
:10069000CBFE2046F8BD00BFBCF60108CD03000824
:1006A000A0860100140F002090F82D3010B50446EC
:1006B00023B902F0DDFA012384F82D3010BD90F843
:1006C0002D3010B5044623B102F0E6FA002384F879
:1006D0002D3010BD70B50546044655F8303B1B68FB
:1006E0009847284608F0DAFC2046FFF7E8FF236821
:1006F00020465B68BDE87040184710B504463030AE
:1007000008F0B6FC2369014643B148B11B68201DBF
:1007100098472046BDE81040FFF7D1BF0028F8D128
:1007200010BDC36810B504460BB19B6898472046BE
:1007300010BD0000064B10B504460360806A08B186
:1007400001F02AFF201DFFF7ECFF204610BD00BF7F
:10075000BCF6010810B50446FFF7ECFF2046D42193
:1007600002F004FD204610BD2DE9F04F05469A46E3
:1007700055F8303B87B01B68129E04468B46914665
:100780009847284608F084FC804640B123682046FC
:100790005B6898474FF0FF3007B0BDE8F08F204608
:1007A000FFF782FF271D2046FFF772FEB7420FD0EA
:1007B0003846FFF7B6FF10224146384612F01EFFBA
:1007C000F3681BB15B68314638469847F36823618C
:1007D000134B236200239DF850606362A36A86F086
:1007E000010623B904F1140001F0A8FEA06294F8F8
:1007F0002C300593139B0493A36ACDF804B0CDE984
:100800000263119B00935246109B4946284608F00C
:10081000B6FB236820465B6898470020BCE700BF12
:10082000FB0600080346024A203007F0A5BF00BFC0
:100830007F09000870B50546124B45F8043B044695
:100840000E461C220021284612F0D8FE102200215C
:1008500004F1200012F0D2FE1022002104F1300039
:1008600012F0CCFE1022002104F1400012F0C6FE6E
:1008700031462046FFF7D6FF2846314601F079FA87
:10088000204670BDD4F6010883681A6843681A428E
:1008900014BF01200020704713B50446019102F0F7
:1008A00019F90199201D07F081FE02B0BDE8104042
:1008B00002F01AB983681A6843681A4214BF01200B
:1008C0000020704710B5084B044640F8203B08F064
:1008D00025F804F14000FFF71EFD04F13000FFF79A
:1008E0001AFD204610BD00BFD4F6010810B504461D
:1008F000FFF7E8FF2046502102F038FC204610BDEB
:10090000884238B504460D460ED0FFF704FD10228C
:100910000021204612F072FEEB681BB15B6829468D
:1009200020469847EB68E360204638BDF0B50D4699
:1009300085B0044602F0CEF8EE6804F1400720349A
:1009400066B129463846FFF7DBFF01220221204627
:1009500007F0A2FE02F0C8F805B0F0BD1022314643
:10096000684612F04BFE69463846FFF7C9FF6846F5
:10097000FFF7D1FC3246E9E7C3681B681847012935
:1009800008B502D0022907D008BDC36B002BFBD0ED
:100990003030FFF7F1FFF7E7C36C002BF4D04030A5
:1009A000F7E707B5CDE9001002F094F8DDE9001093
:1009B00008F0C8FC03B05DF804EB02F095B807B589
:1009C000019002F087F8019808F024FD019002F0F0
:1009D0008BF8019803B05DF804FB07B5CDE9001072
:1009E00002F078F8DDE9001008F032FD03B05DF8A0
:1009F00004EB02F079B807B5CDE9001002F06AF80F
:100A0000DDE9001008F0B8FE03B05DF804EB02F079
:100A10006BB8837E10B504461BB902F029F9012397
:100A2000A37610BD837E10B504461BB102F034F9E5
:100A30000023A37610BD10B5044602F04BF8E37E08
:100A40004BB9B4F91810204608F09CFD2046FFF77A
:100A5000E0FF0123E376BDE8104002F045B810B591
:100A600000234383002304460183C361FFF7E3FFB0
:100A7000204610BD10B5044602F02CF8E37E3BB1D1
:100A8000204608F059FC2046FFF7CCFF0023E37610
:100A9000BDE8104002F028B810B50446FFF7EAFFA1
:100AA000204610BD6FF01500704703681B6918479A
:100AB00003689B69184703689B6A184700290CBFA5
:100AC0006FF0180000207047012070476FF015008C
:100AD00070476FF01500704770477047416830B439
:100AE000034671B1D0E9032000F0010402B944B11A
:100AF000451001EB60000CB149598A58996830BC27
:100B0000104730BC7047000070B500F14C06B0F9DA
:100B1000C020B0F9BE100446304609F0A7F8D4E969
:100B200032530DB9DA070ED55A1004EB6300DB0718
:100B300048BFA35894F8D01048BF5D59B4F9D220EB
:100B4000B4F9D430A847D4F8B810304609F062F8A8
:100B5000224630460249BDE8704007F0B3BA00BFF4
:100B6000310E000873B51E46174BC0F8C83000237D
:100B7000C0F8CC300368019204461B680D469847C4
:100B8000019A84F8D050A4F8D220A4F8D460032DA0
:100B90000AD8DFE805F0150210154FF0FF330121E8
:100BA00004F14C0007F02AFB23685B68204602B082
:100BB000BDE870401847134602214FF0FF32EFE7BF
:100BC00033462946ECE700BF650B000838B50546FB
:100BD000044655F84C3B1B689847284608F0CEFF62
:100BE000236805465B6820469847284638BD38B5D7
:100BF0000546044655F84C3B1B689847284608F0C4
:100C0000D3FF236805465B6820469847284638BDD1
:100C10004C3007F0CFBA10B54C300C4607F0DCFA78
:100C2000204610BD2DE9FF479846394B0360394BEC
:100C300043600025384BC3600446C0E90555C0E950
:100C400007550F46164685608584294600611022A7
:100C5000283012F0D3FC2946102204F1380012F09B
:100C6000CDFC4C222946A01804F1980AA4F848505B
:100C700012F0C4FC04F1A80929461022504612F0D3
:100C8000BDFC29461022484612F0B8FC40F2011380
:100C9000A4F8BC304FF6FF73A4F8D230A4F8D430D7
:100CA00010222946C4E93155C4E93655C4F8B88044
:100CB000A4F8BE70A4F8C060C4F8CC5084F8D0503A
:100CC000C4F8E050684612F099FC69465046FFF7B8
:100CD00017FE6846FFF71FFB10222946684612F0F0
:100CE0008DFC69464846FFF70BFE6846FFF713FB8D
:100CF000A3685A1013F0010F04EB630018BFA25849
:100D0000636818BFD3589847204604B0BDE8F08701
:100D1000F0F60108090B0008DD0A00082DE9FF4183
:100D2000036804461B6816460F46984794F8BC3083
:100D3000350103B186B194F8BD300BB1012E0BD053
:100D4000983539466019FFF7DBFD236820465B685C
:100D5000984704B0BDE8F081983501F0BBFE25440A
:100D6000FA68EB6804F14C0872B10BB901F080FF2E
:100D700039462846FFF7C4FD01223146404607F0B8
:100D8000ADF901F0B1FEE0E70BB101F085FF1022F3
:100D90000021684612F032FC69462846FFF7B0FD94
:100DA0006846FFF7B8FA0022E7E700001FB51A4BC4
:100DB0000360044610220021684612F01FFC002246
:100DC00069462046FFF7AAFF6846FFF7A4FA1022FB
:100DD0000021684612F012FC012269462046FFF706
:100DE0009DFF6846FFF797FA04F1A800FFF793FA12
:100DF00004F19800FFF78FFA04F13800FFF791FC37
:100E000004F12800FFF78DFC206A08B101F0C4FB53
:100E1000204604B010BD00BFF0F6010810B504462E
:100E2000FFF7C4FF2046E42102F0A0F9204610BDE0
:100E300000EB0110983008B5C3680BB1FFF79CFDBB
:100E400008BD036870B504461B680D46984794F8C2
:100E5000BC30AB422BD065B194F8BD304BB9A26821
:100E60006368511004EB6200D20744BF6258D35844
:100E7000984701F02FFE05B3D4F8A4305BB104F11C
:100E80009800FFF779FD01F0F3FE0122002104F143
:100E90004C0007F023F901F027FE84F8BC5035B967
:100EA00094F8BD301BB904F14C0008F0DFFD236855
:100EB00020465B68BDE8704018472A46294604F181
:100EC0004C0007F00BF9D4F8A430002BE3D001F06C
:100ED000E3FEE0E7036870B504461B680D469847DB
:100EE00094F8BD30AB422BD065B194F8BC304BB90F
:100EF000A2686368511004EB6200D20744BF6258D5
:100F0000D358984701F0E6FD05B3D4F8B4305BB18F
:100F100004F1A800FFF730FD01F0AAFE01221146FE
:100F200004F14C0007F0DAF801F0DEFD84F8BD5062
:100F300035B994F8BC301BB904F14C0008F096FDAB
:100F4000236820465B68BDE8704018472A460121A7
:100F500004F14C0007F0C2F8D4F8B430002BE3D011
:100F600001F09AFEE0E770B5D0E90813D0E9022558
:100F70000446521845EB030300F076F9636B2BB17E
:100F800004F128001B68BDE87040184770BD0000E0
:100F900010B5044600F050F9084B236000220023EE
:100FA000C4E908230021102204F1280012F026FBD6
:100FB000012384F83830204610BD00BF08F701082F
:100FC00070B5044615461E4601F084FD204600F02B
:100FD00055F9C4E90856A06901F001FA421941EB3C
:100FE0000603204600F040F9BDE8704001F07CBDEA
:100FF0001FB5044601F06EFD204600F03FF9636B1B
:1010000023B194F838300BB101F046FE1022283499
:101010000021684612F0F2FA2046FFF77CF9694693
:101020002046FFF780F96846FFF775F901F05CFD8F
:1010300004B010BD38B50546064B45F8283B0446BC
:10104000FFF7D6FF2846FFF766F9204600F01CF9A7
:10105000204638BD08F7010810B50446FFF7EAFF3F
:101060002046402102F082F8204610BD2DE9F041D3
:1010700004461E460D46174601F02CFD636B23B94E
:1010800094F838300BB101F0F3FD04F12808A845BD
:1010900006D04046FFF73FF929464046FFF743F99F
:1010A0003A4633462046FFF78BFFBDE8F04101F09A
:1010B0001BBD000010B5034B03600446FFF7BAFFE9
:1010C000204610BD1CF7010810B50446FFF7F2FFDB
:1010D0002046402102F04AF8204610BD1FB50446C4
:1010E00010220021684612F089FA636B23B15B6815
:1010F00004F1280168469847636B03932046FFF785
:1011000077FF039B68461B6898476846FFF703F91B
:1011100004B010BD10B5044601F0DCFC23681BB11F
:10112000237F0BB101F0B8FD0023236001F0DCFC4C
:10113000204610BD10B5044601F0CCFC236853B91D
:10114000237F0BB101F094FDA06901F048F9C4E9D7
:10115000020101232360BDE8104001F0C5BC38B591
:10116000044601F0B7FC236863B1A06901F037F9C8
:10117000D4E90235C41A61EB050501F0B5FC20463F
:10118000294638BD00242546F7E773B5054601F02A
:10119000A1FC2846D5E90446FFF7E1FF201846EBFD
:1011A00001010190009101F09FFCDDE9001002B007
:1011B00070BD000008B5FFF7E8FF10F0AFFEDFEDEF
:1011C000047A07EE100AC7EE277A17EE900A08BDD8
:1011D0000024744908B5FFF7D8FF4FF47A72002352
:1011E00010F0E2FE08BD10B5044601F073FCA069E2
:1011F00001F0F5F800220023C4E90201C4E9042348
:10120000BDE8104001F070BC002310B5002203605F
:101210000023C0E90223C0E90423044601F0F2F8E8
:101220000123A06123772046FFF7DDFF204610BD94
:1012300003689B6818470000094B10B50022036043
:101240000023C0E902230023C0E90433044601F06F
:10125000D9F80449A06101F039F8204610BD00BF5B
:1012600030F701083112000807B5009000F10801BD
:10127000806901F06AF803B05DF804FB00F1080131
:10128000806901F091B8000010B5034B036004467B
:10129000FFF7F4FF204610BD30F701080368012274
:1012A0001B6900211847036800221B691146184773
:1012B00080F834170020704780F8501600207047DF
:1012C00090F83407704790F8500670470020704738
:1012D000012070476FF01C0070477047034607C934
:1012E00083E807007047704710B442688168541063
:1012F000034601EB6200D20748BF0A591B685DF83C
:10130000044B48BFD358184700F5E06001F07ABF9E
:1013100000F5E06001F092BF13B503680191044647
:101320001B6C984701992046FFF78BFD23682046E8
:101330005B6C9847002002B010BDA0F1E400FFF7FD
:10134000EBBF13B50368019104461B6C98470199E4
:101350002046FFF7BFFD236820465B6C98470020BE
:1013600002B010BDA0F1E400FFF7EBBF0020704712
:10137000012070476FF01C00704730B5056885B0DC
:101380000446CDE9022101932D6CA847DDE9013225
:1013900020460399FFF7E6FB23685B6C204605B007
:1013A000BDE830401847D0F83C0708B520B1FFF73A
:1013B0006BFA003818BF012008BD00000C4B10B5B7
:1013C000036050330446C0F8E430D0F83C0710B155
:1013D00003685B68984704F22470FEF79CFF04F5ED
:1013E000E06001F047FF2046FFF7E0FC204610BD1B
:1013F00050F70108A0F1E400FFF7E0BF10B5044684
:10140000FFF7DCFF20464FF4E86101F0AFFE204615
:1014100010BDA0F1E400FFF7F1BF1FB50446102294
:101420000021684612F0EAF8002269462046FFF7DC
:1014300075FC6846FEF76FFF002384F8363704B06A
:1014400010BD1FB5044610220021684612F0D6F8E0
:10145000012269462046FFF761FC6846FEF75BFF04
:10146000002384F8353704B010BD10B5044601F0F0
:1014700031FBD4E9C0239A420ABF94F80843002400
:1014800084F0010401F030FB204610BD38B503683C
:101490001B6C0446984704F57D752846FFF7E5FF69
:1014A00023685B6C48B920469847012001F062FE32
:1014B000236820461B6C9847EFE72046984700209A
:1014C00038BDA0F1E400FFF7E1BF38B50546E830CC
:1014D000FFF7CBFF80F001042846E4B2FFF763FF7B
:1014E00018B144F40054204638BD01F0F3FA95F8E1
:1014F000FC5601F0F9FA002DF5D144F01004F2E7A2
:10150000A0F1E400FFF7E1BF70B504460D4601F01D
:10151000E1FA01F0DFFA94F8086301F0E5FA46B168
:10152000D4F804330133B3F5407F08BF0023C4F877
:101530000433D4F80023531CC4F800332978A15491
:10154000B3F5407F04BF0023C4F80033D4E9C023BF
:101550009A4204BF012384F80833BDE8704001F0CB
:10156000C3BA38B504460D4601F0B4FA2046FFF779
:101570007CFFB0B9D4F804335A1CC4F80423E35CEC
:101580002B70D4F80433B3F5407F4FF0000308BF4D
:10159000C4F8040384F80833012401F0A5FA2046B6
:1015A00038BD0024F9E770B504460D4604F22476F0
:1015B00001F090FAAE4210D03046FEF7ACFE102299
:1015C0000021304612F01AF8EB681BB15B6829461F
:1015D00030469847EB68C4F83037D4F830374BB111
:1015E000236847F6FF711B692046984710B13046C3
:1015F000FFF7C2F9BDE8704001F076BAA0F1E4004F
:10160000FFF7D1BF08B5D0F830371BB100F2247016
:10161000FFF7B2F908BDF7B500F1E8050446284622
:10162000FFF723FF064601F055FA94F8F07301F036
:101630005BFA77B92046FFF7C9FA50B12046FFF7A9
:10164000E7FA0DF107018DF807002846FFF75CFF68
:10165000E9E794F836374BB101F03CFA94F8F073AF
:1016600001F042FA17B12046FFF7D7FE36B12846FF
:10167000FFF7FBFE10B92046FFF7C4FF03B0F0BD33
:1016800073B5044601F026FA94F8FC5601F02CFAE2
:1016900004F57D762046FFF7AAFA58B10DF107014F
:1016A0003046FFF75EFF28B19DF807102046FFF790
:1016B000B2FAEFE794F835373BB104F57D70FFF7E8
:1016C000D4FE10B12046FFF7BCFE6DB101F002FA66
:1016D00094F8FC5601F008FA35B92046FFF763FE8E
:1016E00010B92046FFF78EFF02B070BDF8B5054671
:1016F0000C46164600F57D773846FFF7B6FE40B13A
:10170000A719BC4209D014F8011B2846FFF783FA39
:10171000F7E72846FFF7B4FFEEE73046F8BD0000D4
:1017200038B510220D460021044611F067FF95E8F8
:101730000700024BE36084E8070038BD3CF701086E
:1017400010B588B00B4B01930023CDE9023004465D
:1017500001A904A8FFF7E4FF012204A92046FFF72E
:10176000DDFA04A8FEF7D7FD012384F8353708B069
:1017700010BD00BF811600082DE9F84304460F464E
:101780001646002A67D001F0A2F9054630B132466C
:1017900039462046BDE8F843FFF7A8BF2368204636
:1017A0001B6C984704F57D78AE4249D901F092F957
:1017B00094F8FC9601F098F9B9F1000F17D094F85D
:1017C0003437002B3CD0236820465B6C98470120BF
:1017D00001F0D0FC236820461B6C984701F07AF991
:1017E00094F8FC9601F080F9B9F1000FEBD101F00B
:1017F00071F994F8FC9601F077F9B9F1000F0AD16C
:10180000394640460135FFF77FFE07F10109AE4238
:101810004F46ECD1354601F05DF994F8373763B1A6
:1018200094F835374BB92046FFF72AFF4046FFF7BB
:101830001CFE10B92046FFF783FF01F055F9B3E70E
:10184000236820465B6C9847002D14BF28466FF034
:101850000A00BDE8F8831046FBE7A0F1E400FFF7BB
:101860008BBF000030B5002589B00B4B01930446B7
:10187000CDE9025001A904A8FFF752FF2A4604A9A6
:101880002046FFF74BFA04A8FEF745FD012384F834
:10189000363709B030BD00BF1716000838B504460A
:1018A000FFF7C0F9144B002503F108025833C4F8C0
:1018B000E4302260C4E9FA5584F8F053C4F8F456D1
:1018C000C4F8F85684F8FC5604F5E06001F092FC88
:1018D0001022294604F2247011F090FE074BC4F840
:1018E00034370123204684F83837C4F83C57FFF7D3
:1018F000B9FF204638BD00BF48F7010801000001CC
:101900002DE9F341044688461646002A49D0074689
:1019100057F8E83B1B6C98473846FFF7A6FD98B18F
:10192000236894F834275B6C20462AB998476FF0F7
:101930000A0002B0BDE8F0819847012001F01AFCCE
:10194000236820461B6CE6E7054608EB0501AE421E
:10195000019109D03846FFF788FD28B9019938462A
:10196000FFF7FFFD0135F0E701F0B4F894F83837E0
:101970007BB194F8363763B92046FFF74CFE01F08F
:10198000A9F894F8F06301F0AFF816B92046FFF714
:1019900069FF01F0A9F8236820465B6C9847284648
:1019A000C7E71046C5E7A0F1E400FFF7A9BF03466B
:1019B00007C983E807007047704710B44268816820
:1019C0005410034601EB6200D20748BF0A591B6856
:1019D0005DF8044B48BFD358184738B504460D4648
:1019E00001F078F894F857302BB994F8563013B9C1
:1019F00094F854307BB104F10800FFF7F9FA0023A2
:101A000084F85530A4F856300DB12046A847BDE8FB
:101A1000384001F069B8A36CDB689847F7E710B568
:101A2000044601F057F8A36C9B689847BDE8104046
:101A300001F05AB810B5044601F04CF8A36CDB680D
:101A40009847BDE8104001F04FB810B5044601F0CA
:101A500041F8012384F85730A36C5B699847BDE8CF
:101A6000104001F041B813B5044601F033F8A36CFF
:101A7000DB699847019001F037F8019802B010BD7A
:101A800038B504460830FFF7B3FA0023C4E917332A
:101A900084F85530A4F856306366A36C012584F8A9
:101AA0005850DB699847436802681F2B9ABF9D40D6
:101AB00005F1FF354FF0FF3502F5742303F23F23A4
:101AC000A566B3FBF2F3E36638BD0000F8B5044643
:101AD0000E46083017461D46FFF75AFA0B4BA36017
:101AE0003368A364069B013323650135002384F822
:101AF0005430E56400F0EEFF7368636020462760B1
:101B0000FFF7BEFF00F0F0FF2046F8BD1CF701080C
:101B100010B5044600F0DEFF2046FFF7B1FFA36CCE
:101B20001B689847BDE8104000F0DEBF10B50446C2
:101B300000F0D0FF2046FFF7A3FFA36C9B699847F6
:101B4000BDE8104000F0D0BF90F8563010B54BB152
:101B5000D0E91724944205D0204600F0A7FA031ECE
:101B600018BF0123184610BD38B5044600F0B2FF77
:101B7000A36C5B68984794F8543005463BB901461E
:101B80002046FFF7E1FF10B1A36C5B69984700F0B6
:101B9000ABFF284638BD000030B590F85830856E50
:101BA00085B0044643B9436EC26CCB1A2B409342B6
:101BB00024BF012380F85830E06D94F85830226D2E
:101BC000411A0D40D3B994F8553063BB1F490294B4
:101BD000CDE9001395421E49039128BF1546E26ED8
:101BE0006A430432694604F10800FFF73FFA684689
:101BF000FEF791FB012384F8553014E0954218D389
:101C0000A36C1B699847A36C5B689847002384F812
:101C10005830E36D6066181AA36E1840854204D2EE
:101C2000A36C5B69984705B030BD236D8342FAD938
:101C30000546226D054B0093954228BF15460023AB
:101C4000034A0392CDE90134C9E700BF991C00089B
:101C5000F4F7010838B504460D4600F03BFFA36CCD
:101C60005B689847012384F8563094F85430C4E9EF
:101C70001750014633B92046FFF78EFFBDE83840C4
:101C800000F032BFA36C28461B699847236E636639
:101C9000002384F85830F1E713B5044600F01AFF2A
:101CA000002384F85530A36C5B6898470146D4E95B
:101CB0001720904207D1A36C5B69984702B0BDE83A
:101CC000104000F011BF019100F0F0F901990028D7
:101CD000F1D12046FFF760FFF0E70000EFF310833B
:101CE00072B6054A117831B90449DB4303F00103A8
:101CF0000B70012313707047190F0020180F00207C
:101D0000034B00221A70034B1B7803B162B6704775
:101D1000190F0020180F0020014B1878704700BFE2
:101D2000190F002070B50E460446154606F01EFC3D
:101D3000013609D02046002106F03CFC2946204609
:101D4000BDE8704006F032BC70BD38B5036804468B
:101D50000D465AB1826813602046012106F02AFC24
:101D600029462046BDE8384006F020BCC2681B0466
:101D7000F1E70022FFF7D6BFFFF7D4BF37B50D4616
:101D80000446019206F0F2FB013507D0019A0021CA
:101D9000204603B0BDE83040FFF7D7BF03B030BDE9
:101DA0000022FFF7EBBFF8B5069F04460E461D461E
:101DB00062B91A46FFF7B6FF013603D0236817B1A0
:101DC000A2681360F8BDE2681B04FAE706F0CEFBD8
:101DD0000136F7D03A4629462046BDE8F840FFF7DD
:101DE000B4BF0000014800F051B800BF00F801087E
:101DF000014B186800F034B88C020020014B1868C1
:101E0000FFF731BE600F0020014B1868FFF78EBE50
:101E1000600F0020014B1868FFF717BE600F00200D
:101E2000024B01461868FFF715BF00BF600F002086
:101E3000014B1868FFF7FEBD600F0020014B1868CA
:101E4000FFF7EDBD600F0020014B1868FFF78CBE57
:101E5000600F0020014B1868FFF75ABE600F00208A
:101E600010B5044600F036FE064B1B780BB9FFF7A1
:101E7000B9FF054B21461868FFF7AFFDBDE81040DC
:101E800000F032BED80F0020600F0020F0B50C4EDD
:101E90000C4D85B0039000F01DFE337803994BB9CB
:101EA000094F0A4A0124009423463846FFF70EFEE4
:101EB0002F60347000F018FE286805B0F0BD00BF38
:101EC000D80F0020600F0020680F00202CF80108B8
:101ED0001FB5431C10D105B05DF804FB83420AD145
:101EE0008968039007F056F90398002105B05DF862
:101EF00004EB07F0CBB90C31B1F900305A1CEDD12D
:101F00000023024600930248194600F091FE00BFEC
:101F100030010180884207B502460AD0431C08D030
:101F2000013105D0002305480093194600F080FEDA
:101F30000146084603B05DF804FB00BF3001018094
:101F4000B1F900305A1C01D118467047834201D1C3
:101F5000486870470C31F3E7421C13B504460AD0B9
:101F6000FFF7EEFF431C06D10023044800932246EE
:101F7000194600F05DFE02B010BD00BF30010180C7
:101F8000B1F900305A1C01D118467047834201D183
:101F9000886870470C31F3E72DE9F74F446894F8EF
:101FA0003A100646002955D101684968884771688A
:101FB000096A814205464DD0206AE168A66825621B
:101FC000281A0140384886428C464FF0000E39D01E
:101FD00094F83BB0D4E90A5A0027A1FB0001BBF1F9
:101FE000000F46D0CBF1200801FA08F820FA0BFCCC
:101FF000ABF1200E21FA0EFE4CEA080C4CEA0E0C56
:102000002D1821FA0BFEABF120094AEB010ACBF1A6
:1020100020080EFA0BF10CFA09F941EA09012CFA31
:1020200008F80CFA0BF02B1A41EA080100936AEB4E
:1020300001030193DDE90023BB4208BFB2420CD289
:10204000C4E90A23D4E90C0110EB0C0041EB0E01AA
:10205000C4E90C0103B0BDE8F08F009B1CF1010C3A
:102060004EF1000E9A1B019B63EB0703C4E90A23A0
:10207000E8E732463B460FF097FF12EB050843EBCB
:102080000A09B94508BFB04584468E4602D2C4E964
:102090000A89D7E710F1010C41F1000EB8EB0602F6
:1020A00069EB0703E2E700BF40420F00824206D916
:1020B0008A420BD9884294BF002001207047884291
:1020C00006D98A428CBF002001207047012070474A
:1020D000002070472DE9F74FD0F8048098F83A3087
:1020E0000746002B40F0818098F83930002B7CD1D6
:1020F000FFF752FF7E683A6873680192002B66D042
:10210000D6E90C01D3E90023994208BF904205D3D8
:10211000019B5B6903B0BDE8F04F1847141A63EBED
:102120000105D6E90623AB4208BFA242D6F81090BB
:1021300006D3B2682E4B9A4219D1A14528BFA146B9
:10214000326A019B9144F2681B6909EA0202104657
:10215000019298473B685B689847019A0146D8F816
:102160002000FFF7A3FF00283FD03B68D1E796F897
:102170003B30EBB1A3F1200CC3F1200224FA02F2B0
:1021800004FA03F005FA03F104FA0CFC194C41EAD5
:102190000C0111430019164A4FF000044FF00003E0
:1021A00044EB01010FF000FF814528BF8146C7E7DE
:1021B0001048A2FB04AB02FB05BB1AEB00004FF07A
:1021C00000010B4A4FF000034BEB0101EAE7D8F89E
:1021D0001030D8F82000D8F80C201844019B1B6957
:1021E000104003B0BDE8F04F184703B0BDE8F08FD2
:1021F00040420F003F420F0043682DE9F74F93F82C
:1022000038200546002A5BD193F83A30002B57D18D
:1022100003681B6898472B68DB6998472A4B04685A
:102220000122002C08BF1C461F2302FA03F1A14221
:102230005FFA83FA02D0013BF7D19A4646682249F9
:10224000331F1D2B28BF2026331F072714F1FF380B
:1022500007FA03F74FF0000343F1FF39C1FB078989
:102260002246404649460FF09FFE6B682A6801935C
:102270004FF00008C3E900885268894683469047BA
:10228000019B0122186202FA06F66B680021002009
:10229000013EC3E90A01C3E90C01C3E9036728460B
:1022A000C3E906B99C6083F83BA01A8783F83A809B
:1022B000FFF772FE284603B0BDE8F04FFFF70ABFF4
:1022C00003B0BDE8F08F00BF40420F0038B50546AF
:1022D0000C46FFF791FF00F0FDFB6B681C60BDE84A
:1022E000384000F001BC70B5044600F0F3FB2368F1
:1022F000DB689847636893F83A201AB1BDE87040EC
:1023000000F0F2BB012283F8392063685B68A3B157
:102310002046FFF741FE65686E68D5E90C01D6E9F5
:102320000023994208BF904207D3F3686B602B6883
:10233000002BEAD0B0689847E7E76368002283F88B
:1023400039202046FFF7C6FED8E72DE9F7430A9D5E
:1023500001900C469046994600F0BCFB0198FFF7AF
:102360001BFE0198A5604268C4E9008953680021FA
:102370002BB9E36061B95460FFF7ACFE0FE0D3E91D
:102380000067B94508BFB045F3D31946DB68EFE7EE
:10239000D2E90C234B4508BF4245CC60ECD203B0D8
:1023A000BDE8F04300F0A0BB38B505460C4600F090
:1023B00091FB6A685368A34209D1DB6853602846E1
:1023C000FFF788FEBDE8384000F08EBB1346002BB7
:1023D000F8D0DA68A242F9D1E268DA60F2E738B5FB
:1023E0000446FFF709FF00F075FB2046FFF7D4FD18
:1023F0006368D3E90C4500F077FB2046294638BDD9
:10240000704700000048704750F80108024B1B68F5
:102410000BB10248184770479002002050F801089D
:10242000BFF35F8F114B19680022C1F307215A6077
:1024300010468A4216D11022DA600D4A1A61132220
:10244000DA600C4A1A611122DA600B4A1A610B4AEF
:10245000DA600B4A1A6107225A60BFF34F8FBFF34D
:102460006F8F70479A6018610132E2E790ED00E0EB
:1024700039F00206390702133FF50B1312000080F2
:1024800039000213B1F90C20B1F9041007F0EEBBCA
:10249000014B18680368184720100020014B58684A
:1024A0000368184720100020014B986803681847FC
:1024B00020100020014BD868036818472010002026
:1024C000014B18690368184720100020014B586918
:1024D0000368184720100020014B986903681847CB
:1024E00020100020014BD8690368184720100020F5
:1024F00013B5044600F0EEFA0D4A002352F8041B0F
:10250000A14208D10B4A002142F8231002B0BDE8D5
:10251000104000F0E9BA0133082BEFD100F0E4FAE3
:102520000023054800931A46194600F081FB00BFBE
:102530007CF80108201000200101018013B5044639
:1025400000F0C8FA0F4A0023114652F8040B70B984
:102550000D4A41F8234052F8234000F0C5FA5CB917
:102560000A48009423462246214600F061FB0133CD
:10257000082BEAD10024F0E7054B064A1A602046F2
:1025800002B010BD201000207CF80108200101805D
:1025900040100020F1240008024B1B6803B11847CB
:1025A000704700BF4010002000207047036870B5DE
:1025B0001B690122002104469847051E0DDB236894
:1025C00002221B69002120469847236806462946B7
:1025D0001B690022204698473546284670BD0000FA
:1025E0004FF0100300F00CB84FF0200300F008B8D3
:1025F0004FF0300300F004B84FF0400300F000B893
:10260000EFF308804FF0040172460A4201D0EFF365
:1026100009809C46254B196802680A6004314268AB
:102620000A60043182680A600431C2680A600431B9
:10263000F0C147460F6004314F460F6004315746E2
:102640000F6004315F460F60043102690A6008318F
:1026500042690A60043182690A600431C2690A6011
:102660000431034620334FF40076324200D0043365
:1026700075464FF01006354200D148330C46103CE9
:102680002360EFF309820A600431EFF308820A60E5
:10269000043172460A600431EFF314820A60604626
:1026A000024B196800F07AF8FEE700005CFA0108B6
:1026B000F0B52C4E2C4F85B000243546214656F8F7
:1026C000042B3846013400F0E9F90D2CF6D1AB6C3F
:1026D00002936B6C01932B6C244C0093D5E90E2371
:1026E000696B234800F0DAF92168224800F0D6F936
:1026F000E16AA26AA36AA06A266BE76B000CCDE9C7
:1027000001670090C3F307231B48D2B200F0C6F95B
:10271000A36A1E0603D5616B184800F0BFF9A36ACF
:10272000180403D5A16B164800F0B8F9EB6C190733
:1027300012D5144800F0B2F92B6DDA070FD5124804
:1027400000F0ACF9EB6C5B074CBF1048104805B0CB
:10275000BDE8F04000F0A2B90E4800F09FF90E4825
:10276000EEE700BFC83B00209CF8010800ED00E048
:10277000AAF80108F9F8010807F9010856F9010853
:1027800064F9010872F9010881F90108B1F9010839
:10279000BDF90108A1F901088EF9010837B5044611
:1027A0000D461A48012100F00FF968BB184800F0E7
:1027B00075F9302C19D0402C1CD0202C1FD1154875
:1027C000154C00F06BF9154800F068F9FFF770FF41
:1027D000134800F063F90D4B00221A7000231149D1
:1027E00000932A46204600F023FA0F480F4C00F0D1
:1027F00055F9E8E70E480F4C00F050F9E3E70E48B2
:102800000E4C00F04BF9DEE70024E7E71C3C00200B
:10281000C9F90108F2F901083E01FF801FFA010819
:102820002AFA010849FA010801FA01083F01FF806C
:102830000AFA01084001FF8015FA01083D01FF80F6
:10284000F8B515460C4699B151F8087C95B1284663
:1028500010F07EFA064648B1AF423A46214628BFFC
:102860002A4610F0C5FD204610F07AFA3046F8BD31
:102870000F46EBE72E46F9E713B54A43104601929F
:1028800010F066FA044618B1019A002110F0B6FE65
:10289000204602B010BD000038B5044619480D4668
:1028A000FDF77AFD00F0AEFC204605F1080110F0BE
:1028B0005FFA154B044600B39968144A0560294431
:1028C0004260996019691A680131196159682A448E
:1028D0008A421A60996988BF5A6054F8042C4D1BCB
:1028E00022F00102083015449D6104460548FDF7B9
:1028F00053FD00F0A3FC204638BD5A6901325A61ED
:10290000F4E700BF6010002044100020EFBEADDEF1
:1029100000B572465DF804EBFFF7BEBF38B505465B
:1029200015480C46FDF738FD00F06CFCDCB154F89E
:10293000042C124B9A421DD154E9033223F00101B9
:10294000002344F8043C0E4B1868801A186018697C
:102950000138186198690244521A9A61A4F1080179
:1029600028460FF0A1FE0448FDF716FDBDE83840EB
:1029700000F064BC2146F3E760100020EFBEADDE3E
:102980004410002000B572465DF804EBFFF7C6BFA7
:1029900003460122D3E84F0FC3E8412FC0B20029FC
:1029A000F8D17047D0E85F3F5B18C0E8523F002A7B
:1029B000F8D198B27047D0E85F3F5B1AC0E8523F49
:1029C000002AF8D198B27047D0E84F3FC0E8421FC4
:1029D000D8B2704700B589B000F07CF8422101A858
:1029E000FFF7DEF9114E124D0424039B019A1A6081
:1029F000304600F0C1FB019B049A1B041360304673
:102A000000F0BAFB013CF0D10424039B019A1A6048
:102A1000284600F0B1FB019B049A1B041360284672
:102A200000F0AAFB013CF0D1DEE700BFF049020054
:102A3000801A060007B5014600220190022000F02E
:102A4000A1FA00F047F80199084611F099F80199A8
:102A50000246022000F096FA03B05DF804EB00F0A5
:102A600043B8000000B5A3B002460B4601A884217C
:102A700015F0F2FB832806D9074B1A681B79CDF8AD
:102A800083208DF88730002802DD01A8FFF7D2FFF0
:102A900023B05DF804FB00BF60FA01080FB407B56E
:102AA00004A951F8040B0191FFF7DCFF03B05DF8B6
:102AB00004EB04B07047EFF31080C04300F0010056
:102AC0007047EFF30580003818BF01207047FFF70B
:102AD00023B9000008B5FFF701F9024A1368013372
:102AE000136008BD88100020044A136823B1013B1D
:102AF00013600BB9FFF704B9704700BF88100020BE
:102B000008B50B48FFF744FF28B1FFF7E3FFBFF319
:102B10004F8F20BFFDE7FFF7D4FF08B1FFF75AFF43
:102B2000FFF7C9FF0028F9D0012000F0E5FA00BF47
:102B3000C8100020F0B5284D8FB035EA200528BF19
:102B400005460E4617460021302202A810F056FD19
:102B5000224B01952B44012B01AC039605D9204B48
:102B60009D4202D0033B9D4232D1F36B0293736BC3
:102B700008931C4B5B690493DA6B05925A6B1B6BD1
:102B800006920793FFF7A6FF174A13680133012B3C
:102B9000136009D126460FCE144D0FC50FCE0FC5B9
:102BA0000FCE0FC533682B600FCC114D0FC50FCC66
:102BB0000FC50FCC0FC523682B600E4B1B6813B1DC
:102BC000A5F130009847FFF78FFF00200FB0F0BD50
:102BD00002970894CDE700BF0101FF80C2FE007F8D
:102BE0004001FF809C0300208C10002094100020E6
:102BF000CC100020901000200FB407B5012106482A
:102C0000CDF804E0FFF7E0FE019A014610B9034851
:102C1000FFF790FFFFF774FF1C3C00200001FF80CE
:102C200000207047014B1878C0B270471C3C002050
:102C300008B504460121064876461546FFF7C4FE4E
:102C400020B9324629462046FFF774FFFFF758FFA8
:102C50001C3C002010B5054C236813B9FFF7C2F8DF
:102C600020602068BDE81040FFF7B9BB10110020BC
:102C700013B5074C01212046FFF794FE034628B9FF
:102C80000090014622880348FFF7D2FF02B010BD32
:102C9000001100202301048013B5094C01212046B6
:102CA000FFF789FE4FF6FF73984206D10023228872
:102CB000044800931946FFF7BBFF02B010BD00BFE8
:102CC0000011002024010480034B188880B2B0FA60
:102CD00080F04009704700BF00110020F8B5FFF7F1
:102CE000F9FEFFF7B7FF06460F46FFF7EDFF044674
:102CF000A0B107F0EDF8FFF7ADFF05468CB10F4826
:102D0000D0E90043A21B63EB0707521947EB01010F
:102D1000C0E90021BDE8F840FFF7E6BE07F0C6F8BD
:102D2000E9E7074CD4E90020931B60EB07005B192F
:102D300040EB0101C4E90031ECE700BF08110020BD
:102D4000181100206FF01C0070476FF015007047DD
:102D5000012070470020704770470000034B18683F
:102D600018B14FF0FF3101F0F9BC7047703C002002
:102D7000024B186808B101F009BD7047703C002093
:102D8000F8B5074E15460C468F18BC4205D014F80E
:102D9000011B304605F020FAF7E72846F8BD00BFD2
:102DA000F84D002038B511F001048DB205D0084867
:102DB00006F0E4FE041E18BF0124EB0605D5044806
:102DC00006F0F2FE08B144F01004204638BD00BF02
:102DD000F84D002010B504460FF0C2FF204610BD8C
:102DE00010B50C462AB1044805F0E4F92070012022
:102DF00010BD1046FCE700BFF84D002038B5084B69
:102E00000360084B1B680446154633B90648FFF7B4
:102E100039FB0548294606F0FDFE204638BD00BFB7
:102E200070FA0108841B0020F84D00200020704734
:102E30000020704708B5012000F05EF9074A0849F4
:102E400013681844884289BF064B10600C224FF06B
:102E5000FF308CBF1A601846704700BF94030020F3
:102E600000FC01208C4E002001207047012070479B
:102E700008B500F07DFA08BD08B500F081FA08BD7C
:102E800010B50446037803F00303012B08D0FFF7C5
:102E900065FF237803F00302012A03D1FFF768FFDF
:102EA000002003E043F002032370012010BD0378EB
:102EB00023F0030343F001030370FFF759BF000041
:102EC0003F2870B504462EDC184D55F820305A1CAA
:102ED00013D1022811DCFFF7ABFF034658B9204697
:102EE000FFF7A4FF034630B9114E3378BFF35B8F71
:102EF000DB0704D50F4B45F82430184670BD30462B
:102F0000FFF7BEFF0028F5D00B490A484FF46132A5
:102F1000FFF774FF3046FFF7CAFF084A0849054823
:102F2000FFF7A2FFE6E70023E7E700BF94020020D7
:102F30002011002024110020C4FA0108880200207A
:102F4000592D000838B50546FFF7BAFF0B4B002492
:102F500043F8254030B90FF0AFF9092303604FF073
:102F6000FF3038BD03685B699847051E04DA0FF02F
:102F7000A3F96D420560F2E72046F2E794020020D3
:102F8000FFF7E0BF13B5CDE90021FFF799FFDDE9B9
:102F9000002140B90FF090F9092303604FF0FF348E
:102FA000204602B010BD0368DB689847041EF7DABC
:102FB0000FF082F964420460F0E708B5131E07DAE7
:102FC0000FF07AF9162303604FF0FF33184608BD5F
:102FD000FCD0FFF7D7FF40EAE073F7E713B5CDE980
:102FE0000021FFF76DFFDDE9002140B90FF064F922
:102FF000092303604FF0FF34204602B010BD036880
:103000009B689847041EF7DA0FF056F96442046093
:10301000F0E7002A08B503DBBDE80840FFF7DEBF94
:103020000FF04AF9162303604FF0FF3008BD10B5CA
:10303000FFF746FF044628B90FF03EF90923036065
:10304000204610BD0368DB699847041EF8DA0FF0CC
:1030500033F9644204600024F2E7FFF7E8BF13B5D8
:10306000CDE90021FFF72CFFDDE9002140B90FF089
:1030700023F9092303604FF0FF34204602B010BD4E
:1030800003681B699847041EF7DA0FF015F96442CC
:103090000460F0E7FFF7E3BF10B5FFF711FF30B9A9
:1030A0000FF00AF9092303604FF0FF3010BD0368E9
:1030B0009B699847041E04DA0FF0FEF8644204602E
:1030C000F2E70020F2E700000A4D08B52B6804463D
:1030D00098680FF023FA2B68D8680FF01FFA0120C8
:1030E000FFF7DAFF0220FFF7D7FF0CB1FFF772FC02
:1030F000FEE700BFCC04002008B5FFF7E5FF38B5B8
:103100000D46FFF7DDFE044630B90FF0D5F8092370
:1031100003604FF0FF3038BD0368DB699847002833
:1031200014BF4FF400534FF400436B6023682046F4
:103130009B6A984728610020EDE7FFF7E0BF000099
:103140001FB503900FF004FE039A034620B90090C8
:1031500001460348FFF76CFD05B05DF804FB00BFB6
:103160001F010180FFF7ECBF0FF0FABD0FF0F8BDB3
:103170000FF0F6BD02F09BBA034B596A5A6A521A15
:103180008242FBD3704700BF000C004013B5FFF72D
:10319000A1FC00F087FB094B1A6818608242084ABC
:1031A00082BF116801311160116801910446FFF777
:1031B0009BFC0199204602B010BD00BF34110020D5
:1031C000301100201FB500230362094B002908BFFE
:1031D0001946031D02931C230446039368460B23E0
:1031E0000091019301F0A2FA206004B010BD00BF6D
:1031F000DCFA010810B500210446FFF7E3FF204682
:1032000010BD000037B504464FF0FF31006801F0F3
:10321000A5FA054628B9236A01332362002003B0CA
:1032200030BDFFF7FFFC03460028F7D102480093AA
:103230002A461946FFF7FCFC150102801FB504461B
:10324000006801F0A3FA024628B9236A013B236211
:10325000104604B010BD0390FFF7E4FC039A034648
:103260000028F5D1024800931946FFF7E1FC00BFA2
:103270001701028010B50446006801F09FFA20464D
:1032800010BD1FB504460023CDE90033231D029372
:10329000104610236A46039301F096FB206004B0A9
:1032A00010BD10B54FF6FF720446FFF7EAFF204647
:1032B00010BD006801F0A0BB10B50446006801F025
:1032C000C9FB204610BD000008B5094B094A1A6029
:1032D000094B9B1A094A1360094B0A4A1A600A4BA8
:1032E0009B1A0A4A136000F051F800F07DF800BF05
:1032F0009C11002000FC01200000022098110020F9
:103300002C110020B84E002000FC012028110020C4
:103310000E4838B50E4B03600B250E4B45601C2440
:10332000C460836001F002FA0B4B18600B480C4B31
:10333000C460C0E900350B4B836001F0F7F90A4B1C
:103340001860BDE838400FF05DBC00BF6811002078
:10335000F6FA01087C1100207811002038110020B5
:1033600003FB01084C1100204811002009F080BD2A
:10337000024B4FF0FF31186801F0F0B978110020CE
:10338000014B186801F002BA7811002008B5FFF768
:1033900047F80C4B0C4998684FF00053C21802F1E3
:1033A0006042126843F8042B8B42F7D1054B4FF073
:1033B00000529A6005F08EFE06F05CFEBDE8084003
:1033C00000F010B800ED00E088010020704708B55B
:1033D000FFF79EFFFFF7FAFFFFF722FCBDE808406A
:1033E000FFF7C4BF00F030BA07B51748174B0360AA
:1033F0000B2343601C23164CC360164B8360164B93
:1034000023614FF4805363614423E360134BA36053
:103410001823A361124B236001F088F9114B224657
:1034200018600021104801F0DDFF034628B9009024
:1034300022460E481946FFF7FBFB00F01DFA002359
:1034400000931A46F5E700BF3C3C00200DFB010845
:103450004C3C0020203C0020783C0020A0110020A3
:103460001DFB0108703C0020CF3300081D010180C6
:1034700008B500F055F8000007B50023421E009380
:103480000023042A19D8DFE802F003080C10140006
:103490000C4801221946FFF7CBFB0B4802221946C4
:1034A000F9E70A4803221946F5E7094804221946B4
:1034B000F1E7084805221946EDE702461946064895
:1034C000E9E700BF25010280260102802701028072
:1034D000280102802A0102800001028010B501F05B
:1034E00099FF034B1B6813B1BDE81040184710BD8E
:1034F000E4110020024B1B6803B11847704700BF5E
:10350000E411002008B5FFF7E5FAFFF7B1FBFFF77C
:10351000E5FBFFF7C1FBBDE80840FFF7E5BA000097
:1035200008B5024C23689847FCE700BF98030020C9
:103530001EF0040F0CBFEFF30880EFF309808169E0
:1035400011F8021C91BB01B590E80F10E047BDE8EF
:1035500000508CE80300244B93E80600914208BF1A
:10356000704741B91EF0100F10D12049086820F0B3
:10357000010008600AE02CE9F00F1EF0100F08BFF0
:103580002CED108AC1F838C081F822E01A6092F858
:103590002210906B61F0FF0E1EF0100F08BFB0EC10
:1035A000108AB0E8F00F80F309887047104A13685A
:1035B0009942FAD801B552F821C00FC8E047BDE8DA
:1035C0000050CCF80000704701B501F0A1FABDE849
:1035D0000140EFF3098CBEE701B501F061FABDE8E7
:1035E0000140EFF3098CB6E7B003002034EF00E0B0
:1035F000E0FB010808B5014610B1132001F0ECFD15
:10360000002008BD08B5EFF3058313B9EFF310836D
:1036100033B16FF0050000F010F86FF0050008BD41
:10362000EFF31183002BF4D1DFF804C000DFF6E7DD
:10363000F53500087047704770477047704770470E
:1036400070477047EFF310832BB9EFF31180003808
:1036500018BF01207047012070470000014BD86857
:10366000704700BF9C03002070B5484C217A0129A7
:1036700000F08A8031B14FF0FF30FFF7DBFF4FF0F1
:10368000FF3070BD424D9C2204F108000FF0B6FFE0
:10369000D5E90B61EB68E3652B8AA4F8543030461A
:1036A000AB68236400F012F908B1C4F88060D5E972
:1036B0000561304600F00AF908B9D4F88060666701
:1036C000D5E90761304600F001F908B9D4F8806007
:1036D000A667D5E90961304600F0F8F808B9D4F8D2
:1036E0008060E6676E6B3EB1D6E9022331683046F2
:1036F00000F066F9C4F88460AE6B3EB1D6E90223EF
:103700003168304600F05CF9C4F88860EE6B3EB179
:10371000D6E902233168304600F052F9C4F88C60D3
:103720002E6C3EB1D6E902233168304600F048F9EC
:10373000C4F890606E6C3EB1D6E902233168304621
:1037400000F03EF9C4F89460AE6C3EB1D6E90223B5
:103750003168304600F034F9C4F89860EE6C3EB140
:10376000D6E902233168304600F02AF9C4F89C609B
:103770002D6D3DB1D5E902232968284600F020F9D6
:10378000C4F8A0500123237200207AE79C03002094
:1037900078FB010870B5264D2B7A012B07D06FF00E
:1037A0000600FFF747FF4FF0FF34204670BD01F0E1
:1037B000F9FD10B94FF0FF30F3E71E4A1E4E1F49C6
:1037C0007068FF2382F8223092F82230D26863F0CA
:1037D000FF03DB4314BFB3FA83F32023C3F12003B9
:1037E000C2F30222934298BF531CFE2202FA03F353
:1037F000104ADBB2D37701F017FF04460028D9D175
:1038000001F04EFF286101F02FFF0D4801F0FEFA94
:1038100001F05EFB336813F0010F4FF0020303D099
:1038200083F314882B72C0E7032282F31488F9E72C
:103830009C03002000ED00E078FB0108D93500086A
:10384000B80300207047000008B5FFF7FBFFEFF357
:10385000058333B16FF00500FFF7ECFE6FF0050054
:1038600008BDFFF7EFFE0028F4D1DFF808C000DF45
:10387000F6E700BF6936000808B5EFF3058333B1FA
:103880006FF00500FFF7D6FE6FF0050008BDFFF7EB
:10389000D9FE0028F4D1DFF808C000DFF6E700BF4A
:1038A0009537000808B5EFF3058313B1054BD868C9
:1038B00008BDFFF7C7FE0028F8D1DFF80CC000DF15
:1038C000F6E700BF9C0300205D36000810B598B1F4
:1038D00040EA010313F007030ED117290AD901604A
:1038E000083910220C18846042600B5081684A60CD
:1038F000C3600123184610BD0023FBE7F0B578B381
:1039000099B132F003032BD10F3121F0070700F1F9
:1039100008052B462D685C68E91A24F00304091B8E
:103920008F4204D929680029F3D10846F0BD4668C2
:1039300004683E4446602044083841688E4288BF8F
:10394000466058683A4318B95A6003F10801ECE739
:1039500020F0030019181D504A6019600831E4E78F
:103960000021E2E730B590B1D9B1A1F1080500F12D
:1039700008040022AC420BD151F8043C23F00304AC
:1039800043681B1B436042B941F8042C012030BD41
:10399000236822463BB11C46ECE751F8083C136013
:1039A000F4E70846F3E71846F1E7EFF310832BB985
:1039B000EFF31180003818BF0120704701207047D5
:1039C00030B5C0B189B1C2B1CBB10024C0E9014268
:1039D00002FB01F41D190160C360436105611846D3
:1039E000013904D1A21A99500121084630BD851829
:1039F00005602846F4E70146F7E71146F5E7194662
:103A0000F3E710B50346A8B100F1140252E8000F25
:103A100010B9BFF32F8F04E0016842E8001404B12D
:103A2000F4E738B1043353E8002F511C43E8001485
:103A300004B1F8E710BD38B5836804466BB10C30AB
:103A4000FFF7DFFF054640B1204601F0DFF92946C8
:103A50000022BDE8384001F071BA38BD70B50E469D
:103A6000044610B10378F72B07D06FF0030120460E
:103A7000FFF7E6FD0025284670BD0C30FFF7C1FFBB
:103A800005460028F7D1002EF5D03146732001F00D
:103A9000A3FB0028EFD0034B2046596901F0A4F99D
:103AA000E9E700BF9C03002030B5F0B1C3688B424A
:103AB0001BD803698B4218D900F114031A680A60F5
:103AC000BFF35F8F53E8002F0C689442F6D143E8B0
:103AD000001505B1F2E7043050E8003F5A1E40E8F7
:103AE000002101B1F8E7002030BD6FF00300FBE7D3
:103AF0002DE9F84F804600B131B96FF00301002085
:103B0000FFF79EFD00246EE0033131F00305B0FAAB
:103B100080F004D0B5FA85F303441F2BEDDD05FBDF
:103B200008FAEAB194683CB1A30702D1D368232B09
:103B300005D86FF00801E2E7D368002BF9D1D2E98C
:103B40000467D2F800903EB116F0030301D1BA45E4
:103B50004CD96FF00901D2E7002FFAD164B901E026
:103B600091461646234BD3F89C00C8B1FFF749FF96
:103B7000044690B101272EBBDFF878B00022DBF8B5
:103B800078005146FFF7BAFE0646A8B92FB1DBF818
:103B90009C00214658B1FFF787FF6FF00401AEE7A4
:103BA000D3F8800001222421FFF7A8FEE0E7DBF82C
:103BB0008000FFF7D7FEF0E7524600210FF01EFD10
:103BC00047F00207F72323700023A3602A463346F9
:103BD000A770C4F80490414604F10C00FFF7F0FE12
:103BE000044B054ADA662046BDE8F88F002CB9D0B0
:103BF0001F46E7E79C030020373A000870B50446EB
:103C000010B10378F72B08D06FF003012046FFF7BF
:103C100017FD6FF00305284670BD00F10C06304615
:103C2000FFF742FF05460028F5D1A368002BF2D02C
:103C30003046FFF7E6FE06460028ECD0204601F0AD
:103C4000E5F80122314601F079F9E4E738B5044698
:103C500010B10378F72B07D020466FF00301FFF770
:103C6000EFFC6FF0030038BD83685BB1204601F0C4
:103C7000CDF80022114601F061F9A0680028F5D1C5
:103C800001F030F900232370A3789B0704D50C4B77
:103C9000A169986FFFF766FEA07810F00100E2D0EE
:103CA000074BD3F89C50214625B12846FFF7FCFE70
:103CB0000020D8E7D3F88000FFF754FE2846D2E76B
:103CC0009C03002010B50446EFF3058333B10020B8
:103CD0006FF00501FFF7B4FC002010BDFFF765FE93
:103CE0000028F4D1DFF808C0204600DFF5E700BF68
:103CF000F13A000808B50246EFF305833BB17AB903
:103D000010466FF00301FFF79BFC002008BDFFF792
:103D10004CFE0028F3D1DFF820C0104600DFF5E7A5
:103D20001378F72BECD10029EAD1BDE8084002F165
:103D30000C00FFF766BE00BF5D3A000838B50546C7
:103D4000EFF305834BB195B96FF003012846FFF7F8
:103D500077FC6FF00304204638BDFFF726FE0028ED
:103D6000F1D1DFF828C0284600DF0446F3E72B78BE
:103D7000F72BE9D105F10C00FFF796FE0446002869
:103D8000E9D1284600F00CFFE5E700BFFD3B000845
:103D900008B50246EFF305833BB110466FF005010D
:103DA000FFF74EFC6FF0050008BDFFF7FEFD002891
:103DB000F3D1DFF808C0104600DFF5E74D3C0008FE
:103DC000EFF310832BB9EFF31180003818BF0120F7
:103DD000704701207047036B30B5E3B1CD78002404
:103DE000DA78AA420FD31A46C1E901248AB1916058
:103DF000A4B16160283050E8003F5A1C40E800211F
:103E000001B1F8E730BD5A681C46002AECD01346D1
:103E1000E6E7C162ECE7C1E90133C1620163E9E7AA
:103E2000D1E9013223B19A608A681AB153607047B0
:103E3000C262F9E70363704728B10378FA2B01D116
:103E4000806A70470020704738B10378FA2B03D19D
:103E5000C368806A181A704700207047F8B58778E1
:103E600004468FB3C56801460027284605F10C06B5
:103E7000FFF7D6FF27703046FFF716FEAB68002B22
:103E800048D03046FFF7BDFD0446002842D0284602
:103E900000F0BCFF3A460646394601F04FF830467E
:103EA00000F0F8FF6A6A8168064604F10C000FF022
:103EB0009FFAF9232370A770F368E3702146284620
:103EC000BDE8F840FFF787BF8568AB68002BF5D0E9
:103ED0005B78832BF2D1284600F098FF3A460646DD
:103EE000394601F02BF8304600F0D4FF06466A6AE6
:103EF000806804F10C010FF07BFAF3680BB1E278F3
:103F00001A7000232370214605F10C00BDE8F8402B
:103F1000FFF7CABDF8BD00002DE9F84F88460746F7
:103F200000B131B96FF003010020FFF78AFB0024D4
:103F300077E0CE1C26F003060C36B0FA80F104D0F0
:103F4000B6FA86F30B441F2BECDD06FB07FAF2B141
:103F500094683CB1A30702D1D368332B05D86FF026
:103F60000801E1E7D368002BF9D1D2E90453D2F874
:103F700000903DB115F0030B01D19A4554D96FF073
:103F80000901D1E7002BFAD11CB19B460CE0914608
:103F90001546274BD3F8A000D8B1FFF732FD0446F1
:103FA000A0B14FF0010B35BB214B0022D86F514619
:103FB000FFF7A4FC0546C0B9BBF1000F06D01C4BAF
:103FC000D3F8A000214658B1FFF76EFD6FF0040151
:103FD000AAE7D3F8800001223421FFF78FFCDEE747
:103FE000D3F88000FFF7BEFCF0E7524600210FF047
:103FF00005FB4BF0020BFA2323700023C4E909836D
:10400000C4E90B33A36032462B4684F802B0C4F8EF
:104010000490394604F10C00FFF7D2FC044B054A2A
:104020001A672046BDE8F88F002CE4D1B1E700BF45
:104030009C0300205D3E00082DE9F0410C46174628
:104040009846054618B10378FA2B00D141B92846A5
:104050006FF00301FFF7F5FA6FF00300BDE8F081A0
:104060008368C3B15B78832B15D100F0CFFE0122AA
:104070000646002100F062FF304600F00BFF0646C6
:104080006A6A806821460FF0B3F9F0680028E5D02D
:1040900007700020E2E705F10C00FFF7B2FC0646CE
:1040A00070B121466A6A0C300FF0A2F90024F9239E
:1040B0003370B470F77031462846FFF78CFEE8E79E
:1040C000B8F1000F10D04146932001F085F840B1BF
:1040D000074B2846596900F087FEEFF30983C3E9CF
:1040E00002476FF00100B9E76FF00200B6E700BFCA
:1040F0009C03002038B5044610B10378FA2B07D092
:1041000020466FF00301FFF79CFA6FF0030038BD03
:10411000836863B1204600F079FE00226FF002014F
:1041200000F00CFFA0680028F4D100F0DBFE0023B3
:104130002370A3789B0704D50C4BA169D86FFFF7B8
:1041400011FCA07810F00100E1D0084BD3F8A0508A
:10415000214625B12846FFF7A7FC0020D7E7D3F872
:104160008000FFF7FFFB2846D1E700BF9C0300203B
:1041700010B500F1280353E8002F12B9BFF32F8FB9
:1041800004E0511E43E8001404B1F4E70AB900202A
:1041900010BDC06A01230028F9D0821CD2E84F1F4D
:1041A000C2E8443F04B1F9E711F0FF0FF0D0806896
:1041B000F1E700002DE9F0410F4615469846044608
:1041C00018B10378FA2B00D141B920466FF00301F2
:1041D000FFF737FA6FF00300BDE8F081FFF7C8FF83
:1041E000064600283AD001462046FFF719FE626ACB
:1041F00006F10C0138460FF0FBF80DB1F3782B7087
:10420000002504F10C07357031463846FFF74CFCA9
:10421000A3680BB90020DFE73846FFF7F2FB06463C
:104220000028F7D0204600F0F1FD2946074601227C
:1042300000F084FE384600F02DFE626A8168074671
:1042400006F10C000FF0D4F8F9233370B570FB6859
:10425000F37031462046FFF7BEFDDBE7B8F1000FF3
:1042600010D04146832000F0B7FF40B1074B2046F5
:10427000596900F0B9FDEFF30983C3E902756FF0E6
:104280000100A9E76FF00200A6E700BF9C03002031
:1042900010B50446EFF3058333B100206FF005013C
:1042A000FFF7CFF9002010BDFFF78AFD0028F4D1F9
:1042B000DFF808C0204600DFF5E700BF193F00081F
:1042C0002DE9F04106460F4690461C46EFF3058364
:1042D0004BB196B930466FF00301FFF7B2F96FF0BA
:1042E0000300BDE8F081FFF76BFD0028F1D1DFF896
:1042F0004CC03046234600DFF3E73378FA2BE9D190
:10430000002FE7D0002CE5D106F10C00FFF779FB78
:10431000054680B1726A39460C300FF069F8F9230E
:104320002846C5E901762B70AC7085F8038000F053
:1043300037FC2046D5E76FF00200D2E7394000088D
:10434000F8B504460F4616461D46EFF3058343B104
:104350008CB920466FF00301FFF773F96FF003008B
:10436000F8BDFFF72DFD0028F2D1DFF848C0204648
:104370002B4600DFF4E72378FA2BEAD1002FE8D0B0
:10438000002DE6D12046FFF7F3FE054670B100F19F
:104390000C01626A38460FF02BF80EB1EB783370DF
:1043A0002846EC6000F0FCFB0020D9E76FF002002B
:1043B000D6E700BFB541000808B50246EFF3058314
:1043C00023B1BDE808401046FFF736BDFFF7F8FC03
:1043D0000028F6D11046DFF808C000DF08BD00BF96
:1043E000393E000808B50246EFF3058323B1BDE866
:1043F00008401046FFF728BDFFF7E2FC0028F6D181
:104400001046DFF808C000DF08BD00BF493E0008C5
:1044100008B50246EFF305833BB110466FF0050186
:10442000FFF70FF96FF0050008BDFFF7C9FC002882
:10443000F3D1DFF808C0104600DFF5E7F5400008CB
:10444000EFF310832BB9EFF31180003818BF012070
:10445000704701207047000070B5A8B38468D0E9A8
:1044600000566CB114F0030302D1C2681B2A1AD89B
:104470006FF008010020FFF7E1F80024204670BD2E
:10448000C368002BF4D1124BD3F8940030B9D3F8A1
:10449000800001221C21FFF731FA01E0FFF7B1FA99
:1044A000044660B10123F522A3700023C4E902335E
:1044B000C4E904332270E67065602376DEE76FF0AE
:1044C0000401FFF7BBF8D9E705460646DBE700BF66
:1044D0009C030020284B70B55D6904460E4635B933
:1044E0006FF00701FFF7AAF84FF0FF3070BD10B171
:1044F0000378F52B07D020466FF00301FFF79EF8F5
:104500006FF00300F2E7037E53B9EA6AC560C0E9C1
:10451000043202B11061EC62012323760020E5E74A
:10452000C278D1070DD5C168A9420AD1FF2B06D1A7
:104530006FF00F01FFF782F86FF00200D6E701334A
:10454000EBE7002EF8D093070AD5E06895F9203004
:1045500090F920209A4203DA80F8203000F068FCBD
:104560003146532000F038FE18B12946204600F0AD
:104570003BFC6FF00100B9E79C03002038B52E4BDF
:104580005A69044632B96FF00701FFF757F84FF048
:10459000FF3038BD10B10378F52B07D020466FF0FF
:1045A0000301FFF74BF86FF00300F2E7037E33B926
:1045B0006FF00E01FFF742F86FF00200E9E7C16803
:1045C000914202D06FF00D01F4E7013BDBB20376BC
:1045D00023BB43690BB101691961216901B34B61C7
:1045E000E3789B0705D592F92110D36AD3B982F8F5
:1045F0002010A3687BB1204600F008FC002205468D
:10460000114600F09BFCEB6A6361002323610123E8
:10461000E560EC622376002000F064FC0020B8E73F
:10462000D362DDE7986820B190F920008142B8BFDD
:1046300001465B69DAE700BF9C03002070B50446C1
:1046400010B10378F52B07D020466FF00301FEF779
:10465000F5FF6FF0030070BD037ED3B16369C068DE
:104660000BB122691A6122691AB35361E3789B077F
:104670000BD590F92130C26AEAB990F920209A420C
:1046800003D080F8203000F0D3FBA068E0B900F040
:1046900029FCA078002610F001002670DBD0124B18
:1046A000D3F894502146C5B12846FFF7FDF93046AE
:1046B000D1E7C362DAE7916821B191F920108B420A
:1046C000B8BF0B465269D7E7204600F09FFB002297
:1046D0006FF0020100F032FCD7E7D3F88000FFF75B
:1046E00041F92846B7E700BF9C0300202DE9F041BF
:1046F0000446002601270CB9BDE8F081E378D4F820
:1047000014801B0710D5A36826766BB1204600F0F5
:104710007DFB00220546114600F010FCEB6AE560C7
:10472000C4E90463EC6227764446E4E708B5024630
:10473000EFF3058333B100206FF00501FEF77EFF34
:10474000002008BDFFF77CFE0028F4D1DFF808C088
:10475000104600DFF5E700BF5944000808B50246DF
:10476000EFF305833BB110466FF00501FEF766FFDE
:104770006FF0050008BDFFF763FE0028F3D1DFF8F6
:1047800008C0104600DFF5E7D544000808B502462A
:10479000EFF305833BB110466FF00501FEF74EFFC6
:1047A0006FF0050008BDFFF74BFE0028F3D1DFF8DE
:1047B00008C0104600DFF5E77D45000808B5024651
:1047C000EFF305833BB110466FF00501FEF736FFAE
:1047D0006FF0050008BDFFF733FE0028F3D1DFF8C6
:1047E00008C0104600DFF5E73D460008EFF31083F0
:1047F0002BB9EFF31180003818BF0120704701205A
:1048000070470C30D0E85F3F13B9BFF32F8F04E03F
:104810005A1EC0E8512F01B1F4E798B2003818BF12
:104820000120704730B500F10C02C189D2E85F3F2A
:10483000994202D8BFF32F8F04E05C1CC2E8554FA9
:1048400005B1F3E7C0899BB2984294BF00200120D4
:1048500030BD0000F8B515464FF6FE73421E9A4271
:1048600006460F4601D8884207D26FF003010020A8
:10487000FEF7E5FE00242046F8BD7DB1AC682A684D
:1048800044B114F0030302D1E9680F2922D86FF074
:104890000801ECE7EB68002BF9D11546114BD3F872
:1048A000980080B1FFF7ADF80446A8B10123A370CA
:1048B0000023F622A3600B4B22700B4A6560A78190
:1048C000E6819A66D7E7D3F8800001221021FFF72E
:1048D00015F8E9E71546EAE76FF00401FEF7AFFEC9
:1048E000C9E700BF9C030020ED480008836810B5AD
:1048F00004465BB1FFF785FF40B1204600F086FA21
:104900000022BDE81040114600F018BB10BD38B5BC
:10491000054610B10378F62B07D028466FF0030147
:10492000FEF78DFE6FF0030038BD84683CB100F0E7
:104930006DFA0122002100F001FB0020F4E7FFF7EF
:1049400071FF38B928466FF01001FEF778FE6FF05E
:104950000200E9E72046E7E770B5054610B10378A5
:10496000F62B07D028466FF00301FEF768FE6FF0C4
:10497000030070BD836863B1284600F047FA002247
:104980006FF0020100F0DAFAA8680028F4D100F014
:10499000A9FAAB78002613F001032E700FD0094B53
:1049A000D3F89840294624B12046FFF77DF83046D9
:1049B000DFE7D3F88000FEF7D5FF2046D9E7184699
:1049C000D7E700BF9C03002010B50446EFF3058332
:1049D00033B100206FF00501FEF731FE002010BD5D
:1049E000FFF704FF0028F4D1DFF808C0204600DFFD
:1049F000F5E700BF5548000810B50446EFF30583FE
:104A000043B184B920466FF00301FEF718FE6FF042
:104A1000030010BDFFF7EAFE0028F2D1DFF830C036
:104A2000204600DFF5E72378F62BEBD12046FFF791
:104A3000F9FE20B1204600F0B3F80020E9E7204657
:104A40006FF01001FEF7FBFD6FF00200E1E700BF21
:104A50000F49000808B50246EFF305833BB1104645
:104A60006FF00501FEF7EBFD6FF0050008BDFFF7E5
:104A7000BDFE0028F3D1DFF808C0104600DFF5E7DF
:104A80005949000810B5D0E85F3F5A1C914200D840
:104A90000022C0E8542F04B1F5E798B210BD000021
:104AA00038B51A4C00F0F6FDE3680133E360236D7E
:104AB00003B1984700F0D6F9002000F013FA236CF8
:104AC0001BB3A26BA1698A4202D0A163E3631CE01D
:104AD000E36BB3B9237A022B17D1656AADB195F9AF
:104AE000201092F9203099420FD1284600F097F912
:104AF000A06B00F0AFF9284600F0EAF9236CA5633B
:104B0000E4E7013BE363002BE4D038BD9C030020C5
:104B100070B5224C04F1560504F15A06B4F854104D
:104B2000D5E85F3F13B9BFF32F8F04E05A1EC5E8E5
:104B3000502F00B1F4E79BB25BB33046FFF7A2FF02
:104B4000E36D53F8200020B30378F13B082BE5D840
:104B500001A252F823F000BF7D4B00081D4B000856
:104B6000834B00081D4B00081D4B0008874B0008B5
:104B70008B4B00081D4B00088F4B0008236E984795
:104B8000CCE7636EFBE7A36EF9E7E36EF7E7236F0D
:104B9000F5E7BDE87040002000F0A4B99C030020B8
:104BA00070B5164C0546B4F8541004F15602D2E81C
:104BB0005F3F994202D8BFF32F8F04E0581CC2E830
:104BC000560F06B1F3E79BB2994205D82946022059
:104BD000BDE87040FEF750BC04F15800FFF752FFEB
:104BE000E36D43F82050637A23B9054B4FF08052B0
:104BF0005A6070BD0123A372FBE700BF9C03002035
:104C000000ED00E0EFF310832BB9EFF311800038D3
:104C100018BF0120704701207047000010B50A4AF4
:104C200090F9201001234370536A1C321BB193F991
:104C300020408C4205DCC0E90232906003B1D860AC
:104C400010BD1A469B68F1E79C030020014B586990
:104C5000704700BF9C030020024B586900B1806A76
:104C6000704700BF9C03002008B5FEF737FCDFF853
:104C700010C000DF4FF0FF310020FEF7DCFCFEE744
:104C800079520008930710B502F0010422D400F114
:104C9000280384B153E8000F00EA01028A4203D0DE
:104CA000BFF32F8F002005E020EA010243E8002433
:104CB00004B1EFE710BD53E8000F084203D1BFF382
:104CC0002F8F002005E020EA010243E8002404B110
:104CD000F1E7EFE7806A01EA00031CB1994218BFCF
:104CE0000020E7E7002B08BF0020E3E710B5084AE3
:104CF000136B00213BB94FF0FF34C0E90431C461AC
:104D000021B1086110BD19461B69F3E71063F9E78B
:104D10009C03002010B5C469621CD0E904310AD19B
:104D200003B1596142691AB113610023436101E083
:104D3000064A136310BD1BB1DA6959612244DA6176
:104D40004269002AF0D1014AD362F3E79C030020B4
:104D500010B50023038083789A07044608D513F022
:104D6000100F016B0E4B0FD0D3F88400FEF79CFEA2
:104D7000A378DB0712D50A4BD3F88800214638B157
:104D8000BDE81040FEF790BE586FFEF7EBFDEFE771
:104D9000BDE81040D3F88000FEF7E4BD10BD00BFB1
:104DA0009C0300200F4B0246586910B530B96FF0D4
:104DB0000701FEF741FC4FF0FF3010BD002A06DA74
:104DC0006FF00301FEF738FC6FF00300F5E700F128
:104DD000280353E8000F20EA020143E8001404B15D
:104DE000F7E7EAE79C03002010B591F920208368DB
:104DF0001BB193F92040944205DAC1E90230816089
:104E000003B1D96010BD18469B68F1E783689A68C2
:104E1000826002B1D0600022DA6018467047C26832
:104E20002AB18368936003B1DA600023C3607047DE
:104E300010B50146044664B12378F12B07D008462B
:104E4000FFF7EDFF2046BDE81040FFF7CDBFE46857
:104E5000F1E710BD0123014643700148FFF7C4BFCD
:104E6000B803002038B50A4DEC6A84B1E369013B10
:104E7000E36163B92046FFF7D2FFFFF7EBFF246938
:104E800024B1E369002BF5D000236361EC6238BDE7
:104E90009C03002090F82230826B13F0100F0CBF9F
:104EA0006020202010447047074B596951B10B6BAB
:104EB0008A6B934203D21A68044B9A4202D00120B3
:104EC000FEF7DABA704700BF9C030020A52E5AE215
:104ED00008B502234370024B9861FFF7E5FF08BD58
:104EE0009C03002010B5144B04461A7A5969A0B9E6
:104EF000022A1FD15C6AECB194F9202091F920308C
:104F00009A4217DD2046FFF78AFF0846FFF786FE24
:104F10002046BDE81040FFF7DBBF022A05D190F91B
:104F2000202091F920309A42EFDC2046BDE8104065
:104F3000FFF790BF10BD00BF9C03002038B50446AA
:104F40001546FFF7A7FF01602046FFF7E3FE1DB1FE
:104F5000BDE83840FFF7C6BFBDE83840FFF77ABF6D
:104F600010B54378332B04460CD1416A90F82320C6
:104F7000FFF788FE014628B120460022BDE8104018
:104F8000FFF7DCBF10BD70B5044620B10378F12BEC
:104F900001D1002908DA6FF003012046FEF74CFB2F
:104FA0006FF00305284670BD4378042B06D16FF0DF
:104FB0000201FEF741FB6FF00205F3E700F1280361
:104FC00053E8002F42EA010543E8005606B1F7E72F
:104FD0004378332BE6D1416A90F82320FFF752FE45
:104FE00001460028DED094F823309B0756BF656A3F
:104FF000054620EA050501222046FFF79FFFD1E77D
:105000002DE9F04F85B08146029128B96FF0030178
:10501000FEF711FB0024BCE0002A45D0966846B19B
:10502000B40702D1D368432B06D86FF008010020E3
:10503000EEE7D368002BF8D1D2E9044597693CB17B
:10504000600702D1002D40F0B2806FF00A01EEE758
:105050002FB17B1E372B03D96FF00B01E7E7182721
:10506000002D40F0A880D2E900A301934EBB554B20
:10507000D3F88800F0B1FEF7C4FC064600283AD009
:105080004FF00108002C44D1DFF838B1E5B94E4AA1
:10509000DBF88400556DB8B1FEF7B3FC0246E0B111
:1050A00048F01008344623E0924614461827154667
:1050B0000192DCE7D3F8800001224421FEF71EFCB8
:1050C000DBE74FF00008DDE72246DBF874002946F5
:1050D000FEF714FC02460028E4D1B8F1000F16D008
:1050E000DBF8882052B110463146FEF7DDFC002285
:1050F00048F002087CB96FF0040198E7DBF8800003
:1051000003923146FEF72EFC039A1446F0E742461E
:10511000EEE72246344640F2F1132380019BE37010
:105120000023C4E90233C4E90433C4E90633C4E903
:105130000933C4E90B32A5F140031344C4E90E3925
:105140007FB2224B84F80280FD21C4F804A084F8C9
:10515000207084F821706184656313601A4B1B68AA
:105160005B071AD4A36B00201A4603F1340143F8FD
:10517000040B9942FBD1164BC2E90D394FF08073F5
:10518000D363029B13620F4B124A1A662046FFF745
:10519000A9FE204605B0BDE8F08FAD08113D4FF0E7
:1051A000CC33002DDED042F8043F013DF9E7002F5B
:1051B0007FF44FAF182769077FF447AF472D3FF6BD
:1051C00052AF42E79C03002078FB0108A52E5AE26B
:1051D000694C0008614F000838B5174A137A022B52
:1051E0000446154626D1506A58B150694B1C44708C
:1051F00008D1FFF77BFD1148FFF708FEFFF768FEB7
:10520000012038BDD36A002213B1DC69A1420BD260
:10521000C0E90432C1615AB11061002BEBD0DA69E8
:105220005861511AD961E6E71A46091B1B69EBE779
:10523000E862F2E70020E4E79C030020B8030020C6
:1052400010B50C4B1A7A022A11D15C6A7CB15969EB
:1052500094F9202091F920309A4208D12046FFF796
:10526000DEFD0846FFF7F6FD2046FFF731FE002081
:1052700010BD00BF9C03002038B5164D2B7A022BC1
:1052800027D16B6A2BB36C69E06AFFF72FFAA0692C
:1052900018B100221146FFF751FEEFF309830E48C3
:1052A000A363FFF7B3FDFFF713FE00236B61E37801
:1052B000DB0701D5A36923B12046BDE83840FFF7DD
:1052C00047BD04226270E3606B6BA36003B1DC60D6
:1052D0006C6338BD9C030020B803002010B5044661
:1052E00010B10378F12B07D020466FF00301FEF7D1
:1052F000A2F96FF0030010BD437803F00F03022BF7
:1053000026D0032B33D0012B36D1FFF788FDE06A7E
:10531000FFF7ECF9A06918B100221146FFF70EFE65
:105320006378022B2BD1EFF309831C48A363FFF7AB
:105330006DFDFFF7CDFD1A4B00225A61E378DB07C4
:1053400001D5A369FBB12046FFF702FD0020D2E79B
:10535000134B1A7A022A02D15B6A002BD7D16FF065
:1053600002012046FEF767F96FF00200C3E7FFF77E
:1053700056FDFFF7CFFCCAE76FF00201F2E700200D
:10538000FFF7B0FDDAE70422E360054B62705A6B69
:10539000A26002B1D4605C63D8E700BFB80300200C
:1053A0009C03002038B50B4C0B48A26D0B4D00211F
:1053B000FFF726FE636EA8624BB1E26D084800213C
:1053C000FFF71EFEA864003818BF012038BD012079
:1053D000FCE700BF78FB0108713400089C03002043
:1053E000ED55000810B50446EFF3058333B10020F6
:1053F0006FF00501FEF71FF9002010BDFFF702FC5A
:105400000028F4D1DFF808C0204600DFF5E700BF30
:105410000150000808B5EFF3058313B1054B586937
:1054200008BDFFF7EFFB0028F8D1DFF80CC000DF64
:10543000F6E700BF9C0300204D4C000808B5EFF3D1
:1054400005833BB100206FF00501FEF7F4F86FF023
:10545000050008BDFFF7D6FB0028F3D1DFF804C034
:1054600000DFF6E74152000810B50446FEF742F8A7
:10547000EFF305833BB120466FF00501FEF7DBF843
:105480006FF0050010BDFFF7BDFB0028F3D1DFF87A
:1054900008C0204600DFF5E7DD52000838B50246B7
:1054A000EFF305834BB192B96FF003011046FEF79D
:1054B000C3F86FF00304204638BDFFF7A3FB0028B4
:1054C000F1D1DFF848C0104600DF0446F3E7137857
:1054D000F12BE9D10029E7DB5378042B07D16FF0DA
:1054E00002011046FEF7A8F86FF00204E3E702F1AC
:1054F000280353E8000F40EA010443E8004505B1E2
:10550000F7E71046FFF74CFBD5E700BF874F0008D1
:1055100008B50246EFF305833BB100206FF00501AB
:10552000FEF78AF86FF0050008BDFFF76BFB002857
:10553000F3D1DFF808C0104600DFF5E7A54D0008FD
:1055400008B5EFF305830BB1002008BDFFF75AFB48
:105550000028F9D1DFF804C000DFF6E7594C000855
:105560000C4A536C30B5002413B11D698D420AD921
:10557000C0E9024301611BB11D699860691A196194
:105580002CB1E06030BD1C46491BDB68ECE7506481
:10559000F8E700BF9C03002070B5134D6C6C04B39A
:1055A0002369013B236101262369D3B9E3680BB169
:1055B000A2689A606B640023E86C1A4604F1180133
:1055C000FEF77EFE18B121460320FDF755FFE37874
:1055D000012B07D161692046FFF7C2FF6C6C002CDC
:1055E000E2D170BD6670F9E79C0300200B4B0C4CB8
:1055F00007B51A6E586E0821FEF74AFE094AE064A4
:105600002265E06C4FF0FF3300226946FEF798FEFA
:105610000028F6D1DDE900309847F2E778FB010871
:105620009C03002099550008A8B10C4B1B68B3FBE4
:10563000F0F00138B0F1807F0DD2094BFF2283F8E2
:105640002320A3F54F6306221A605860002098605B
:10565000044B187070474FF0FF3070474004002033
:1056600000ED00E0B8180020074B1A782AB100229C
:105670001A70064B4FF080625A60054A136843F077
:1056800001031360704700BFB818002000ED00E070
:1056900010E000E0014B1B68704700BF10E000E025
:1056A0004FF0FF307047FFF733BFFFF749BFFDF7FB
:1056B000A9BF2DE9F84304460D464FF0FF384FF0DF
:1056C0000009FDF763FDA94208BFA04210D2261AC7
:1056D00065EB0107B94508BFB04504D24FF0FF3074
:1056E000FDF790FFEDE7201ABDE8F843FDF78ABF0C
:1056F000BDE8F883FFF7A2BE036910B51B68044636
:105700000430984704F15400FDF77CFD00236361E9
:10571000012384F8BC3004F14000BDE81040FDF7DF
:10572000C8BD00002DE9F047DDE9085799466B0731
:10573000044618BF25F00706884692464FF0000140
:105740004FF0440200F178000CBF2E4608360DF0F1
:1057500055FFB5FA85F300215B0984F83C3061619F
:1057600084F8BC10202204F11C000DF047FF4D44CA
:10577000074BC4F830A0AD1B25F00705002F08BF6C
:105780001F46E562A761A662C4F83480BDE8F087D1
:1057900044FC010813B5049CCDE9003413460A46C5
:1057A0000021FFF7BFFF02B010BD70B500F1540536
:1057B00004462846FDF726FD04F140006669FDF722
:1057C00078FD0023636194F8BC302BB10024284697
:1057D000FDF734FD204670BD012384F8BC30002E57
:1057E000F4D03046FFF740FE0446F0E74069FFF78B
:1057F00055BE000010B50D4B03600446FFF7D5FF02
:1058000094F83C302BB1A06A08B1FDF7B1FC00233D
:10581000A36204F15400FDF72DFD04F14000FDF7F3
:105820004BFD201DFAF777FD204610BD68FC0108EE
:1058300010B50446FFF7DEFF2046C021FDF796FCB9
:10584000204610BDF8B5044600F1540528460E4622
:10585000FDF7D8FC636913B994F8BC302BB1284626
:10586000FDF7ECFC6FF00300F8BDA36A53B9E06AE2
:10587000214B984294BF20F003004FF0FF30FDF71A
:1058800071FCA0621D490023E26AB3EB920F04D2BF
:10589000A26A42F823100133F6E74423271D63620E
:1058A000B74204F17803236206D03846FAF733FD95
:1058B00031463846FAF737FD114804F118022146FF
:1058C000FFF790FD606190B994F83C302BB1A06A6D
:1058D00008B1FDF74DFC0023A3622846FDF7AEFC9E
:1058E00004F14000FDF7E5FC6FF00200BCE728463C
:1058F000FDF7A4FC0020B7E7FBFFFF7FA52E5AE2CF
:10590000F9560008DFF830D0002103E00B4B5B585C
:10591000435004310A480B4B42189A42F6D30A4AC4
:1059200002E0002342F8043B084B9A42F9D304F00A
:1059300013FCFAF74DFC704700000220F42E020819
:1059400088020020A80E0020A80E0020B84E0020DB
:10595000FEE700002DE9FF41A1F1F0081FFA88F8E9
:10596000B8F10F0F04460D4640D935492846FCF7DB
:10597000F3FA334907462846FCF702FBB8F10F0F4C
:105980000646276007D90146284603F003FC00219C
:10599000284603F07BFC01222A49E2612268A4F830
:1059A00048500023C6F384368A42C4E90133C4E96F
:1059B0000833C4E90A3384F84A6023642361A3618D
:1059C000E3602363636118D101931F4B5A6C42F467
:1059D00080725A645B6C03F480730193019B2046D0
:1059E00000F0B8F840B31948FDF706F91849284601
:1059F000FCF7B2FA16490746BDE716498A420FD0AE
:105A000001F580718A42EAD103930F4B5A6C42F43C
:105A100080625A645B6C03F480630393039BDEE74C
:105A20000293094B5A6C42F400725A645B6C03F4A3
:105A300000730293029BD2E704B0BDE8F08100BF7F
:105A400028000208002001400038024070FC0108D4
:105A5000740202080021014030B585B090F84A1068
:105A600001230022CDE901330446039212294FD8C5
:105A7000DFE801F00A2726292B2D2F31333537395E
:105A80003B3D3F4143484A000092224D6B6823F45E
:105A9000400369466B60204600F0B4F9204600F0F0
:105AA000FDF80A21204600F059F978BB204600F0A5
:105AB000A5F980B26B6823F440036B6005B030BD7C
:105AC00002230093E1E70323FBE70423F9E705231F
:105AD000F7E70623F5E70723F3E70823F1E70923B0
